:100000000C9434000C9451000C9451000C94680131
:100010000C9451000C9451000C9451000C9451001C
:100020000C9451000C9451000C9451000C9451000C
:100030000C9451000C9451000C9451000C945100FC
:100040000C9420010C9451000C9451000C9451001C
:100050000C9451000C9451000C9451000C945100DC
:100060000C9451000C94510011241FBECFEFD8E026
:10007000DEBFCDBF11E0A0E0B1E0ECEBF3E002C0E9
:1000800005900D92A230B107D9F721E0A2E0B1E0CE
:1000900001C01D92A731B207E1F70E94A0000C94A5
:1000A000D5010C9400001BB808958FEF8BB908950B
:1000B000089587E090E021E030E02BB9220F331F54
:1000C0004FEF51EE64E0415050406040E1F700C016
:1000D00000000197009789F708951BB80E94590006
:1000E0001BB82FEF81EE94E0215080409040E1F763
:1000F00000C000008FEF8BB92FEF81EE94E021500C
:1001000080409040E1F700C000001BB80895FC015A
:10011000319786E7E730F10528F4E952FE4F0C9459
:10012000CF0184E58BB9089586E0FCCF8BE5FACF4B
:100130008FE4F8CF86E6F6CF8DE6F4CF8DE7F2CFE9
:1001400085B5836085BD81E080936E0016BC80918B
:100150006800816080936800D89A8EE380936B007A
:100160008FE78BB984B18F7C84B984B1817F84B9E6
:1001700085B1806385B985B18E6085B90E946D00B7
:1001800084E58BB9789480910001909101010E94DF
:1001900087002FEF84E39CE0215080409040E1F7FE
:1001A00000C00000F0CF80910001909101018730E4
:1001B000910539F482E090E0909301018093000171
:1001C000089586309105E4F70196F6CF80910001FD
:1001D000909101018730910539F481E090E090938E
:1001E00001018093000108958230910519F487E0A0
:1001F00090E0F5CF82309105B4F30197F0CFCF9323
:10020000DF9300D000D0CDB7DEB78FB7F894209140
:100210000E0130910F01409110015091110129837D
:100220003A834B835C838FBF789469817A818B8119
:100230009C810F900F900F900F90DF91CF910895B8
:100240001F921FB61F9211242F933F938F939F935A
:10025000AF93BF9380910E0190910F01A091100177
:10026000B09111013091160126E0230F2D3750F582
:100270000296A11DB11D2093160180930E0190934B
:100280000F01A0931001B093110180911201909180
:100290001301A0911401B09115010196A11DB11D8A
:1002A0008093120190931301A0931401B093150150
:1002B000BF91AF919F918F913F912F911F901FBE42
:1002C0001F90189529E8230F0396A11DB11DD3CFC8
:1002D0001F920F920FB60F9211242F933F934F93BB
:1002E0005F936F937F938F939F93AF93BF93EF939E
:1002F000FF9383B1869591E08927282F217030E004
:1003000030930501209304011B990EC081E090E019
:100310004091020150910301452B11F080E090E0E3
:1003200090930301809302011A9906C087E090E040
:1003300090930101809300011C990AC0232BC1F402
:100340008091020190910301892B19F10E94E6002E
:100350001D990EC08091040190910501892B41F4F3
:100360008091020190910301892BB1F00E94D3008A
:10037000FF91EF91BF91AF919F918F917F916F917D
:100380005F914F913F912F910F900FBE0F901F9053
:1003900018950E94D300DCCF0E94E600E9CFEE0F53
:1003A000FF1F0590F491E02D0994F894FFCF94007D
:0C03B000960098009A009C009E009100AE
:0203BC00070038
:04000003000000B247
:00000001FF
