:100000000C9434000C9451000C9451000C94FD009D
:100010000C9451000C9451000C9451000C9451001C
:100020000C9451000C9451000C9451000C9451000C
:100030000C9451000C9451000C9451000C945100FC
:100040000C9451000C9451000C9451000C945100EC
:100050000C9451000C9451000C9451000C945100DC
:100060000C9451000C94510011241FBECFEFD8E026
:10007000DEBFCDBF11E0A0E0B1E0E2EDF2E002C0F2
:1000800005900D92A230B107D9F721E0A2E0B1E0CE
:1000900001C01D92A630B207E1F70E949F000C94A8
:1000A00060010C9400001BB808958FEF8BB9089580
:1000B00087E090E021E030E02BB9220F331F4FEFB3
:1000C00051EE64E0415050406040E1F700C0000054
:1000D0000197009789F708951BB80E9458001BB834
:1000E0002FEF81EE94E0215080409040E1F700C076
:1000F00000008FEF8BB92FEF81EE94E0215080400C
:100100009040E1F700C000001BB80895FC01319752
:1001100086E7E730F10528F4EE59FE4F0C945A01BA
:1001200086E08BB908958BE5FCCF8FE4FACF86E6A5
:10013000F8CF8DE6F6CF8DE7F4CF84E5F2CF80914E
:100140006800816080936800D89A8EE380936B008A
:100150008FE78BB984B18F7C84B984B1817F84B9F6
:1001600085B1806385B985B18E6085B90E946C00C8
:1001700084E58BB9789480910001909101010E94EF
:1001800086002FEF84E39CE0215080409040E1F70F
:1001900000C00000F0CF809100019091010107970D
:1001A00031F482E090E0909301018093000180910E
:1001B000000190910101863091052CF401969093F5
:1001C0000101809300010895809100019091010147
:1001D000079731F481E090E0909301018093000152
:1001E0008091000190910101823091052CF00196DF
:1001F000909301018093000108951F920F920FB612
:100200000F9211242F933F934F935F936F937F939C
:100210008F939F93AF93BF93EF93FF9383B1869593
:1002200091E08927817080930401109205011B9948
:100230000EC081E090E02091020130910301232B58
:1002400011F080E090E090930301809302011A99ED
:1002500006C087E090E090930101809300011C9913
:1002600008C08091020190910301892BE9F00E945E
:10027000E4001D9908C08091020190910301892B2F
:10028000B1F00E94CB00FF91EF91BF91AF919F9190
:100290008F917F916F915F914F913F912F910F902F
:1002A0000FBE0F901F9018950E94CB00E2CF0E94C6
:1002B000E400E9CFEE0FFF1F0590F491E02D0994C3
:1002C000F894FFCF900093009500970099009B0051
:0202D0009D008F
:0202D200070023
:04000003000000B049
:00000001FF
